:100000000C944F040C9496040C9496040C9496044F
:100010000C9496040C9496040C9496040C949604F8
:100020000C9496040C9496040C9471290C942D292C
:100030000C94EA310C9496040C9496040C94960457
:100040000C9496040C9496040C9496040C949604C8
:100050000C9496040C94C6310C9496040C9496045B
:100060000C9496040C9496040C9496040C949604A8
:100070000C9496040C9496040C9496040C94960498
:100080000C9496040C9496040C9496040C94960488
:100090000C9496040C9496040C9496040C94960478
:1000A0000C9496040C9496040C9496040501090291
:1000B000A10185020901A100050919012905150001
:1000C00025019505750181029501750381010501E1
:1000D000093009311581257F950275088106093897
:1000E0001581257F950175088106050C0A380215D2
:1000F00081257F950175088106C0C005010980A191
:1001000001850319012AB700150126B7009501756D
:10011000108100C0050C0901A101850419012AA064
:1001200002150126A002950175108100C005010984
:1001300006A1018505050719E029E71500250195A8
:1001400008750181020507190029EF1500250195A1
:10015000F0750181020508190129059505750191C0
:1001600002950175039101C00660FF0961A10109B3
:1001700062150026FF0095207508810209631500AD
:1001800026FF00952075089102C005010906A1010E
:10019000050719E029E71500250195087501810279
:1001A0009501750881010507190029FF150026FF33
:1001B0000095067508810005081901290595057542
:1001C000019102950175039101C00000000000003B
:1001D000000000000000000000000000000000001F
:1001E00000000000000000000000000000007E0F82
:1001F00000D4FFFFFFC700000078000000000000EF
:1002000000002A2B28000000000000000000000071
:10021000000000000029000000002C1E34202122D4
:1002200024342627252E362D3738271E1F2021223D
:10023000232425263333362E37381F0405060708B6
:10024000090A0B0C0D0E0F101112131415161718A6
:10025000191A1B1C1D2F3130232D350405060708E4
:10026000090A0B0C0D0E0F10111213141516171886
:10027000191A1B1C1D2F3130354C000101010101E1
:10028000010101010202020202020202020303034F
:10029000030303030304040404040404050505051F
:1002A00005060606060607070707070808080809DF
:1002B0000909090A0A0A0B0B0B0C0C0C0D0D0D0E8B
:1002C0000E0E0F0F0F101011111112121313141420
:1002D000151516161717181819191A1A1B1B1C1D95
:1002E0001D1E1E1F202021222223242425262627EE
:1002F0002829292A2B2C2D2D2E2F30313232333420
:1003000035363738393A3B3C3D3E3F404142434425
:1003100045464748494A4C4D4E4F50515354555607
:1003200058595A5B5D5E5F616264656668696B6CB3
:100330006D6F7072737577787A7B7D7E808283852E
:1003400087888A8C8E8F91939596989A9C9EA0A26E
:10035000A3A5A7A9ABADAFB1B3B5B7BABCBEC0C278
:10036000C4C6C9CBCDCFD1D4D6D8DBDDDFE2E4E73C
:10037000E9EBEEF0F3F5F8FAFDFFFFAA7F55402216
:1003800023252628292A2C2D2F3032333536383A8A
:100390003B3D3E4042434547494A4C4E50515355E0
:1003A00057595A5C5E6062646668696B6D6F717301
:1003B0007577797B7D7F81838587898A8C8E909202
:1003C0009496989A9C9E9FA1A3A5A7A8AAACAEAF0D
:1003D000B1B3B4B6B8B9BBBCBEBFC1C2C3C5C6C752
:1003E000C9CACBCCCDCED0D1D2D2D3D4D5D6D7D703
:1003F000D8D9D9DADADBDBDBDCDCDCDCDCDDDDDD4B
:10040000DDDCDCDCDCDCDBDBDBDADAD9D9D8D7D746
:10041000D6D5D4D3D2D2D1D0CECDCCCBCAC9C7C6F3
:10042000C5C3C2C1BFBEBCBBB9B8B6B4B3B1AFAE31
:10043000ACAAA8A7A5A3A19F9E9C9A9896949290D7
:100440008E8C8A89878583817F7D7B7977757371AF
:100450006F6D6B6968666462605E5C5A595755538C
:1004600051504E4C4A4947454342403E3D3B3A3845
:1004700036353332302F2D2C2A29282625232229C0
:100480000014001A000800150017001C0018000CCA
:1004900000120013002A002B0004001600070009B8
:1004A000000A000B000D000E000F0037002800E1CD
:1004B0000000001D001B00060019000500110010BF
:1004C00000360037003800E000E300E200000000E2
:1004D000002C41000000000000E343E600E400358A
:1004E000021E021F022002210222022302240225F0
:1004F00002260227022A003A003B003C003D003E53
:10050000003F002D022E022F023002BE5C3102405D
:1005100000000041004200430044004500320264F4
:1005200002BF5CBE5CBD5C01000100010000000078
:10053000000100000000000000510052004F003593
:10054000001E001F0020002100220023002400259F
:1005500000260027002A003A003B003C003D003EF8
:10056000003F002D002E002F003000010031004020
:100570000000004100420043004400450032006496
:1005800000010001004C000100010001000000001A
:1005900000010000000000000001000100C25C0139
:1005A00000005C01000100010001000100010001E8
:1005B00000010001004C000100010001001D5C1E53
:1005C0005C135C0A5C010001000100C95C010001D0
:1005D00000000001000100C25CC35CC55CC65CC7D2
:1005E0005CC85CC95CCA5CA6000100010000000098
:1005F0000001000000000000000100010001001ED9
:100600000F0500047F3F1F643214643214783C1ECF
:100610001E140A05FD377A585A000004E6D6B4467F
:100620000200210116000000742FE5A3E006A801D6
:10063000985D003D8889C65436C3174FE4E1708940
:1006400095EF5D7D2EBE63CC802875605E3151656F
:1006500081C81870902BD6F05767305A7312CB8E22
:10066000802AD99D411C3F71F30A0106311E511A9F
:100670009162868C42D8A3A2F924A10FAE02721116
:10068000F80E3C25A2E234B472F01D0D7C18150260
:10069000FE5B64810F0110B054B8ADD7F7E59A89BD
:1006A000FA92956020C518D862118205A2619292D3
:1006B000608513F4C2A42C1B25D4865A4B94AED962
:1006C000384ADD1F964D98802CEA1AF17BB57040B0
:1006D000B12649BF23E466955BE66C93E1FC16DE28
:1006E00001EA6799C0B960C2E63E451F8E63E46BBC
:1006F00043C1D861DE1D4837D1BF1526C8751AD849
:100700000794410E3CDBFD680C438E07CB0672E07C
:10071000A31A7B9AEFEE954E264BA32E0043C9F504
:10072000F36996DA058B06BF5688DD40ADF0FB0A0B
:100730004C559AC634D0CC836E4502C34019A8F0FC
:10074000398636F268606C52CDB4260508C48FBE77
:1007500023231AA1078C1C90A0A99985B72059B70B
:10076000349B28E13C62B7AECC214C9A95FB876262
:10077000E0FE56FAD08473E37D9040112526486F41
:100780005DFAF9E01D58C148EC238724F993CED3D4
:10079000056A1C1FFE857CC82FADDF6DC37024F574
:1007A00056C37BCD86E5FC1F48A31CA413476F6C82
:1007B000F58E1C18630C1E1C2887EDAFB1CAA96109
:1007C000F6247426B83A9E5B281E0000B91FD9870C
:1007D000D9029B730001B403A90D0000B23A153D84
:1007E000B1C467FB020000000004595A09025B0013
:1007F000030100A0FA09040000010301010009211E
:10080000110100012240000705810308000A0904C4
:100810000100020300000009211101000122220051
:1008200007058203200001070503032000010904D6
:100830000200010300000009211101000122BC0097
:100840000705840320000A1201100100000008EFD0
:10085000FE74600100010203011C0376006900615F
:10086000006C003A0066003600340063003200621B
:10087000003300630000000C034B004D004A0034BD
:1008800000300000001203480061006E00200043A9
:1008900000680065006E00000004030904001124D4
:1008A0001FBECFEFDAE0DEBFCDBF04B603FE27C028
:1008B0008091930390919403A0919503B091960336
:1008C0008730904BA740B04BD1F410929303109215
:1008D0009403109295031092960314BE84B7877FF9
:1008E00084BF0FB6F894A8958091600088618093CA
:1008F0006000109260000FBEE0E0F8E3099523E08D
:10090000A4EAB1E001C01D92A339B207E1F711E0FA
:10091000A0E0B1E0EEEDF7E602C005900D92A43A3A
:10092000B107D9F70E94482A0C94BB330C940000FD
:10093000E8EDF0E080818E7F80831092E2001092DB
:10094000DA001092E100A0EEB0E08C9181608C930F
:1009500080818F77808319BCA7EDB0E08C918E7F6A
:100960008C9380818F7E808310925D030895209107
:10097000E4003091E50095E6A9012091EC00822F7A
:10098000817020FF06C08091E80080FF06C080E0F3
:1009900008952091E80022FD1AC0809182038823E7
:1009A00089F0853089F08091EB0085FD0FC02091A2
:1009B000E4003091E50042175307F9F29150E1F657
:1009C00084E0089582E0089583E0089581E0089529
:1009D000EF92FF920F931F93CF937C018B010E94A4
:1009E000B704C82F811117C08091E80085FD0BC0A6
:1009F0008091E8008E778093E8000E94B7048823F6
:100A000099F3C82F08C0F70181917F018093F1000D
:100A10000150110949F78C2FCF911F910F91FF9031
:100A2000EF9008958091840387FF13C08091E800C0
:100A300082FF06C08091E8008B778093E80004C0B5
:100A4000809182038111F2CF0895809182038823DF
:100A5000D9F38091E80080FFF8CF8091E8008E778D
:100A6000ECCF982F9093E900242F762F50E0891730
:100A700031F07091EC002091ED005091F00021FDDB
:100A800007C09F5F973071F78093E90081E0089578
:100A90003091EB003E7F3093EB003091ED003D7FD5
:100AA0003093ED003091EB0031603093EB007093A8
:100AB000EC002093ED005093F0002091EE0027FD14
:100AC000E0CF80E00895CF92DF92EF92FF920F93F4
:100AD0001F93CF93DF93C8EDD0E088818F7E88830A
:100AE000E7EDF0E080818160808384E082BF81E077
:100AF00080935D0388818E7F888302EE10E0F80189
:100B000010821092DA0081EEC82ED12CF6011082EC
:100B100088818F77888388818068888388818F7DAA
:100B2000888319BC10928203109283031092810370
:100B30001092800390EEE92EF12CF70180818B7FDB
:100B4000808388818160888342E060E080E00E9449
:100B50003105F60180818E7F8083F801808181607C
:100B60008083808188608083F70180818E7F80838D
:100B7000888180618883DF91CF911F910F91FF90D1
:100B8000EF90DF90CF900895FC0180918A039091BF
:100B90008B0386179707A0F06115710529F49091D2
:100BA000E8009E779093E80090E06115710551F49C
:100BB000911108C08091E80082FF34C080E0089560
:100BC000BC01F2CF809182038823C1F18530C1F14D
:100BD0008091E80083FD30C08091E80082FDEACF7B
:100BE0008091E80080FFE1CF8091F3002091F20036
:100BF000382F6115710519F02830310558F091E052
:100C00002830310509F090E02091E8002E772093FC
:100C1000E800CBCF81918093F100615071092F5F83
:100C20003F4FE7CF80918203882341F0853041F028
:100C30008091E80083FFBECF81E0089582E00895AF
:100C400083E00895089580E0089580915F030895FA
:100C50009C014FB7F8948091570390915803A0914D
:100C60005903B0915A034FBF821B930B08952FB7BE
:100C7000F8948091570390915803A0915903B09133
:100C80005A032FBF08958091F802882331F0109203
:100C9000F8021092F7021092F60208958095909152
:100CA000F50298239093F50208958091F5029091B2
:100CB000F402892B9091F302892B8093A6018091F5
:100CC000F802882329F10E9437062091F60230911C
:100CD000F702821B930B8838934110F00E94430661
:100CE0008091A6019091F802892B8093A6018091B2
:100CF0002001882341F180911B0387FF24C08EE1EE
:100D0000E8EAF1E090E0815000F591110E9443067D
:100D1000E0912603F09127033097E1F080912001C4
:100D2000882359F080911B0387FF07C08091A6019B
:100D30008093A70185E08093A6010280F381E02DD6
:100D400086EA91E0099486E0DBCF21912223D9F253
:100D50009F5FD9CF08951092F2021092F102109283
:100D6000F00208958091EF0281111092EF02089530
:100D7000909120019923D1F090911B0397FF16C009
:100D8000E82FE695E695E695EE31E0F4F0E0EA55D9
:100D9000FE4F282F277081E090E001C0880F2A9530
:100DA000EAF780959281892382830895E8EAF1E049
:100DB0009191891303C0DF0111971C9291E0EE3AE3
:100DC000F907B1F70895909120019923C1F090910E
:100DD0001B0397FF14C0E82FE695E695E695EE31E4
:100DE000F8F4F0E0EA55FE4F877021E030E001C0F2
:100DF000220F8A95EAF78281822B82830895A8EADE
:100E0000B1E0EFEF90E02D91821751F0EF3F19F430
:100E1000211101C0E92F9F5F9630A9F7EF3F09F438
:100E200008950E2E000CFF0BEA55FE4FE6CF9E3FB5
:100E300049F1E82F2CE0929FE00D11249E2F97702E
:100E4000E695E695E69585E0E89FF0011124EF52DE
:100E5000FD4F50E040E080E0219130E0092E02C0DB
:100E6000369527950A94E2F721703327042E01C0A6
:100E7000220F0A94EAF7822B4F5F5F4F45305105EE
:100E800059F7089580E008959E3F69F1E82F2CE01E
:100E9000929FE00D11248E2F877041E001C0440F16
:100EA0008A95EAF7E695E695E69585E0E89FF001F4
:100EB0001124EF52FD4F30E020E070E05191DF014E
:100EC0001197CB01022E02C0969587950A94E2F7FE
:100ED000817081958527842385278C932F5F3F4FD1
:100EE0002530310559F708958091D00290919F02E5
:100EF000981301C008958F5F8770FACF882341F05F
:100F000080959091F40289238093F4020C94550605
:100F10000895882339F09091F402982B9093F4026D
:100F20000C9455060895882321F00E944E060C94D7
:100F300055060895882339F09091F502982B9093E7
:100F4000F5020C945506089520913D0230913E0221
:100F50002817390771F090933E0280933D02E0918B
:100F60002603F0912703309721F00084F185E02DCE
:100F70000994089520913B0230913C0228173907CB
:100F800071F090933C0280933B02E0912603F09134
:100F90002703309721F00680F781E02D099408950A
:100FA000E0912603F0912703309721F00190F08122
:100FB000E02D099480E00895CF93DF93EC0181E068
:100FC000898B8091F5029F81892B8093F502809116
:100FD000F4029885892B8093F4020E945506EA81D9
:100FE000FB81309739F06C897D89CE010696DF91BF
:100FF000CF910994DF91CF910895EF92FF920F93D3
:101000001F93CF93DF93EC018A85811139C0EB8068
:10101000FC8087E5F81A26E12E9DC0012F9D900DDA
:101020001124DC01AF5BBD4F1496ED91FC91159737
:10103000309731F054966D917C91895B9D4F099565
:1010400086E18E9D80018F9D100D11240F5B1D4F39
:10105000F80187810E944E06F8018085982F9095AF
:101060008091F40289238093F4020E94550618822D
:1010700019861B861E821D821092400210923F022A
:10108000DF91CF911F910F91FF90EF900895EDEFB9
:10109000F2E083E0EB31F80739F486E090E09093DA
:1010A0009602809395020895848187FF1482359675
:1010B000F0CFCF92DF92EF92FF92853038F5811119
:1010C00026C0909180009F7D909380002E98282FBD
:1010D00030E0AFEFBFEF0E94AC3342E096958795CA
:1010E000779567954A95D1F76C3744E17407A8F472
:1010F000CB0169E070E00E943B3270938B006093FB
:101100008A00FF90EF90DF90CF90089584E0909157
:101110008000906290938000DACF6A50774D8F4FB5
:101120009F4F982F872F762F662725EF38E241E0D3
:1011300050E00E948A3369017A01CA01B9010E9414
:1011400011329B01AC01C701B6010E941132672F19
:10115000782F892F99276115710521E08207910564
:1011600061F66FEF7FEFC9CF282F220F220F220FDA
:10117000909147039770922B90934703987F21E0BB
:1011800009F420E09091470320FB90F990934703E6
:101190000C945908FA01811101C0FB010994809156
:1011A0004A03982F9E7F29F48170826080934A03BE
:1011B00008958635E8F381708465F8CFAF92BF92C9
:1011C000DF92EF92FF920F931F93CF93DF93082F3D
:1011D000162FE901E42FF0E0E658FD4F611110C031
:1011E000E4915E2F4E2F4983E8835A83DF91CF919C
:1011F0001F910F91FF90EF90DF90BF90AF900895F7
:10120000E62EF12C4491D42EE42FF0E026E0829FCC
:10121000C00111242FEF30E0B9010E943B32802F32
:1012200090E0880F991F55E5569FD001579FB00D4C
:1012300011248A1B9B0B982F990F890F5901AE1807
:10124000BF08AE9ED001AF9EB00DBE9EB00D112462
:101250005B2F189F80011124012F11275901A01A1B
:10126000B10AAE9E8001AF9E100DBE9E100D1124DE
:101270005901A81AB108AE9CC001AF9C900DBE9C4C
:10128000900D1124892F9927281B390B2E9FC001FF
:101290002F9F900D3E9F900D1124E92F6230710514
:1012A000A1F050F46115710509F49DCF613071050D
:1012B00081F0EB2F512F97CF6430710569F080F0EA
:1012C0006630710509F48FCFF4CFE42F4B2F592FDF
:1012D0008ACFE42F412F87CFEB2F542F492F83CF75
:1012E0004B2F5D2DE12F7FCF0E9437069C019091FF
:1012F000370380913803982B21F0309334032093E7
:1013000033039091390380913A03982B21F0309365
:10131000310320933003E0912603F09127033097A7
:1013200049F082E0809335030480F581E02D85E368
:1013300093E00994089590E080E00E94BA0790E05D
:1013400080E00E94A4071092F4021092F3020E941F
:10135000550686E0E5E3F3E0DF011D928A95E9F7A3
:101360001092320310922F03109298020C94740979
:1013700060938F03709390038093910390939203F3
:101380000C949B090F931F9360918F0370919003AE
:1013900080919103909192038B019C01067011271B
:1013A00022273327063011052105310529F468600D
:1013B0001F910F910C94B809677FFACF0F931F9379
:1013C00041E050E060E070E004C0440F551F661F2C
:1013D000771F8A95D2F7CB01BA01609570958095F9
:1013E000909500918F03109190032091910330917B
:1013F000920360237123822393231F910F910C94F6
:10140000B8099091F202809589238093F202282FE7
:10141000277039F4282F082E000C330B921713066F
:1014200021F490911C0392FF07C0859585958595C1
:101430000E94DE090C94AB0608950F931F9341E0C0
:1014400050E060E070E004C0440F551F661F771F36
:101450008A95D2F780918F0390919003A091910388
:10146000B09192038A019B01082B192B2A2B3B2B4D
:10147000C901B8011F910F910C94B80990911C03F8
:1014800092FD10C098E0899F90011124622B609317
:10149000F2020E941D0A0E9437069093F102809387
:1014A000F00208950C941D0A6093F9027093FA02F9
:1014B0008093FB029093FC020C949B09909137035C
:1014C000803F59F48091380387FF0DC01092380394
:1014D00091110BC01092320308C0813F81F48091BA
:1014E000380318169CF3992381F080913903909169
:1014F0003A03892B09F064C010922F030895823FAC
:1015000049F497FFF0CF109237038091380381118F
:10151000ECCFE0CF833F19F41916ACF3E4CF209160
:101520003903893F29F41216F4F610923903DBCF00
:101530008A3F19F427FFD7CFF8CF20913A038B3F8A
:1015400029F427FFD0CF10923A03CDCF8C3F19F466
:101550001216CCF3C8CF843F31F4809136038E7FCE
:1015600080933603C0CF853F21F4809136038D7F71
:10157000F7CF863F21F4809136038B7FF1CF873FF1
:1015800021F480913603877FEBCF883F21F480914F
:1015900036038F7EE5CF8D3F31F4809198028E7FA8
:1015A00080939802A0CF8E3F21F4809198028D7F86
:1015B000F7CF8F3F09F097CF809198028B7FF0CFC4
:1015C0000895882309F452C0823871F40E94D0072C
:1015D00081FF4CC089E30E94E3060E94550689E31F
:1015E0000E94B8060C945506833859F40E94D0071F
:1015F00080FF3CC083E50E94E3060E94550683E518
:10160000EFCF843859F40E94D00782FF2FC087E4BF
:101610000E94E3060E94550687E4E2CF9CEF980FF4
:10162000913AF0F290E2980F983050F4877091E080
:1016300001C0990F8A95EAF7892F0E944E06D2CFF2
:101640009BE5980F933020F490E080E00C94BA076B
:1016500098E5980F973120F490E080E00C94A4076F
:10166000803F20F00E945E0A0C94740908958091D6
:10167000980280FD16C081FD16C082FD16C08091C3
:101680002F038823A1F0883280F428E0829FC001D4
:10169000112468E270E00E944F32862F672B39F0E8
:1016A000089582E0089584E0089588E0089581E037
:1016B00008958091980280FD14C081FD14C082FDC0
:1016C00016C080913203882381F0843180F422E3B4
:1016D000829FC001112464E170E00E944F32862F86
:1016E00008958CE0089589E1089585E0089582E3E6
:1016F0000895803F31F40E94590B819580933803FF
:101700000895813F19F40E94590BF8CF823F31F4BC
:101710000E94590B8195809337030895833F19F4F4
:101720000E94590BF8CF893F29F40E94370B809310
:10173000390308958A3F21F40E94370B8195F7CF32
:101740008B3F31F40E94370B819580933A030895C3
:101750008C3F19F40E94370BF8CF843F31F480910D
:1017600036038160809336030895853F21F480918C
:1017700036038260F7CF863F21F480913603846080
:10178000F1CF873F21F4809136038860EBCF883F0B
:1017900021F4809136038061E5CF8D3F31F4809153
:1017A000980281608093980208958E3F21F4809181
:1017B00098028260F7CF8F3FB9F7809198028460DA
:1017C000F1CFF894E82FE295EF70F0E031A1282FE7
:1017D0002F7081E090E001C0880F2A95EAF7982FDA
:1017E0009095932391A392A1892B82A37894089535
:1017F00090911B0392FF06C0282F28712830F9F41E
:10180000877F846093FF06C0282F28712831F1F468
:10181000877E846120911C0320FF06C0382F387119
:101820003830D9F4877F816021FF06C0282F2871C6
:101830002831D1F4877E816194FD877E0895282F19
:1018400024712430F9F68B7F8860DCCF282F247137
:10185000243101F78B7E8861DDCF382F3171313033
:1018600019F78E7F8860E0CF282F2171213121F771
:101870008E7E8861E1CF81FD02C02A9A08952A9860
:101880000895CF93DF939C013A9521153F4168F568
:10189000EC01CC27D170DC01AA27B270AC0144273F
:1018A00054709C012227387094FF11C080E1CD2B29
:1018B00009F480E0AB2B09F08062452B09F08064CD
:1018C000232B09F08068FB01DF91CF91099481E01F
:1018D000CD2B09F480E0AB2B09F08260452B09F099
:1018E0008460232B81F38860EECFDF91CF91089540
:1018F000CF93DF93EC010E94E10ACE01805E910953
:10190000089720F06EE777E0209711F463E977E01D
:10191000CE01DF91CF910C94410CCF9384E090E005
:101920000E940833C82F82E290E00E940833982F6B
:101930008C2FCF9108950F931F93CF93DF93843013
:1019400030F5643020F54C3010F5C42FD0E0CC0FCA
:10195000DD1F28E1629FC00DD11D112430E6839F59
:10196000C00DD11D1124CE0187960E940833082F87
:1019700010E0102F0027CE0188960E9408339801AE
:10198000282BC901DF91CF911F910F91089590E00D
:1019900080E0F8CF462F20915B0330915C03232B2E
:1019A00091F47E3F39F46E3F71F480913902909149
:1019B0003A020895843038F4743028F46C3018F406
:1019C000672F0C949B0C90E080E00895CF93DF93F9
:1019D0000E94CA0CEC0182389105A9F1D8F5813337
:1019E000910509F496C048F58932910509F48AC039
:1019F0008A9709F495C0C11521E5D20708F0BCC04B
:101A0000C11530E5D30708F014C1C83ED10508F070
:101A10009CC0C03ED10560F5C83AD10508F087C02A
:101A2000C53AD10508F0FDC0C130D10509F12097B4
:101A3000F9F0C430D105E0F440C08533910509F4D4
:101A40005AC0C997C1F680911B03837089F0C0EE1C
:101A5000D0E00EC0833E910599F170F4803E91056F
:101A600001F1823E910539F680911B0382FD21C070
:101A7000CE01DF91CF910895863E910561F1873EB9
:101A8000910571F1843E910509F0B5CF80911C0359
:101A900081FFEECF80911B03C7EED0E084FD0DC027
:101AA000E7CF80911B0380FD12C190911C0390FF32
:101AB000DFCFC3EED0E084FFDBCFD0E0C0E0D8CFF3
:101AC00080911B0382FD06C190911C0390FDBFCF46
:101AD00084FFCECFF2CF80911B0383FDDDCFC8CF33
:101AE00080911B0383FDF9C090911C0391FFF0CFFF
:101AF000C4EED0E0BDCF80911B0385FFB9CFC9E212
:101B0000D0E0B6CF80911B0385FFB2CFC5E3D0E014
:101B1000AFCF80911B0386FFABCFCAE2D0E0A8CF46
:101B200080911B0386FFA4CFC1E3D0E0A1CFCF3BC0
:101B3000D10518F6C85AD0E0CC0FDD1FC95ADE4FC8
:101B40000990D881C02DD46493CFC11540E2D40749
:101B500058F4C11581E0D80708F08ACFC03FD105FD
:101B600008F4ABCFD06584CFC11590E4D90708F451
:101B7000A4CFDF70D06A7CCFC11525E5D20700F570
:101B8000C11534E5D30708F08AC0C11543E5D40771
:101B900008F071C0C11582E5D80708F467C0CE010E
:101BA0008370992721E030E002C0220F331F8A950D
:101BB000E2F7C695C69580E2C89FE001112452C0A5
:101BC000C11599E5D907A8F4C11528E5D20708F091
:101BD0006BC0C11536E5D30708F06FCF8C2F0E947C
:101BE000F80BC82FD0E0DC2FCC27CC27DF71D062D8
:101BF0003FCFC1154AE5D40708F45BC0CE0190562B
:101C00008115904208F059CF8D2F8F710E94F80BEB
:101C100090E0982F882788279F719C012C2BE90141
:101C2000E6CFC55AD0E0CC5ADE4FC881D0E0D064B0
:101C30001FCFCE01E4E096958795EA95E1F7837092
:101C40002C2F26952695237040E2249F9001112485
:101C5000382B8C2F8370C1E0D0E002C0CC0FDD1F89
:101C60008A95E2F7C22BD32BDC6802CFDC2FCC277E
:101C7000C16FD06AFDCECE018370992721E030E09C
:101C800002C0220F331F8A95E2F7C695C69590E2EF
:101C9000C99FE0011124C22BD32BDA68E9CEDC2FD7
:101CA000CC27C46FD06AE4CEDC2FCC27C06FD06ABB
:101CB000DFCE8C2F8F700E94F80B34E0D695C7953D
:101CC0003A95E1F7CF709C2FEC01D069D1CEC9E3F2
:101CD000D0E0CECEC2EED0E0CBCEC6EED0E0C8CEC5
:101CE000BF92CF92DF92EF92FF920F931F93CF9309
:101CF000DF938C01C0908F03D0909003E09091030C
:101D0000F09092038091F9029091FA02A091FB0267
:101D1000B091FC02C82AD92AEA2AFB2ACFE1D0E0F6
:101D2000BC2ED701C6010C2E04C0B695A795979579
:101D300087950A94D2F780FD0EC0219788F7B12CC1
:101D40008B2DDF91CF911F910F91FF90EF90DF903E
:101D5000CF90BF900895B8018C2F0E94E60C019798
:101D600061F3EECFCF93DF93EC010E94700EBE01C2
:101D7000DF91CF910C94E60C0E94B20E292F2F70A8
:101D800092959F7092509E3078F4E92FF0E0E354E2
:101D9000FC4C0C946332803F19F020F4883E20F410
:101DA00081E00895843FE1F380E00895883EC0F328
:101DB000813FD1F7F5CF822F869586958695089538
:101DC000CF93C0911C03C2FB992790F9981781F01B
:101DD00080FBC2F9C0931C0360911B0384E090E078
:101DE0000E941C336C2F82E290E0CF910C941C3344
:101DF000CF910895CF93DF93C1E0D2E060E0CE01B0
:101E00000E941C332196C11584E0D807B9F7DF91F1
:101E1000CF9108950F931F93CF93DF93890184305F
:101E200048F5643038F54C3028F521153C4531F43F
:101E30002091140130911501232BE1F0C42FD0E043
:101E4000CC0FDD1F98E1699FC00DD11D112490E6D4
:101E5000899FC00DD11D1124612FCE0187960E944C
:101E60001C33602FCE018896DF91CF911F910F9187
:101E70000C941C33DF91CF911F910F910895682F1F
:101E800086E090E00C941C33CF93DF9300D00F9248
:101E9000CDB7DEB790918203943011F589837B83AF
:101EA0006A839093E9008FEF9091E800815095FD4F
:101EB00006C095ED9A95F1F700008111F5CF80915C
:101EC000E80085FF0DC050E040E063E070E0CE0127
:101ED00001960E94E8048091E8008E778093E800E4
:101EE0000F900F900F90DF91CF910895BC0184E087
:101EF0000C94440FBC0183E00C94440F9C0184E0DB
:101F00008093E9009FEF8091E800915085FD06C025
:101F100085ED8A95F1F700009111F5CF8091E800E9
:101F200085FF0CC050E040E066E070E0C9010E940F
:101F3000E8048091E8008E778093E8000895CF93BD
:101F4000DF93EC01809120018823B1F180911B0384
:101F500087FF32C060E284E08093E9008FEF9091C8
:101F6000E800815095FD06C095ED9A95F1F70000C7
:101F70008111F5CF8091E80085FF1BC08091200181
:101F800070E050E040E0811104C050E040E068E0C3
:101F900070E0CE010E94E8048091E8008E77809383
:101FA000E80080E2FE01A0E6B3E001900D928A9580
:101FB000E1F7DF91CF91089568E081E0CDCF81E036
:101FC0008093E00080E28093D8001092C9008FE1F6
:101FD0009EE40197F1F700C0000087E090EBDC0180
:101FE0008093930390939403A0939503B0939603E7
:101FF00088E19CE00FB6F894A895809360000FBE2E
:1020000090936000FFCFCF93C82F882309F4AEC010
:102010008238C1F40E94D00781FDA8C089E30E94E4
:10202000E3060E9455062FEF81EE94E02150804098
:102030009040E1F700C0000089E30E94B806CF910C
:102040000C9455068338A1F40E94D00780FD8EC001
:1020500083E50E94E3060E9455062FEF81EE94E08F
:10206000215080409040E1F700C0000083E5E5CFBB
:102070008438A1F40E94D00782FD78C087E40E94D2
:10208000E3060E9455062FEF81EE94E02150804038
:102090009040E1F700C0000087E4CFCF8CEF8C0FB9
:1020A000813A88F580912001882301F180911B03FA
:1020B00087FF1CC0EC2FE695E695E695F0E0EA5523
:1020C000FE4F828190E04C2F477021E030E002C04B
:1020D000220F331F4A95E2F782239323892B79F04D
:1020E0008C2F0E94B8060E94550609C0E8EAF1E06C
:1020F0008191C817A9F321E0EE3AF207C9F78C2FB6
:102100000E94E3069CCF80E28C0F883068F4C77091
:1021100021E030E001C0220FCA95EAF78091F50274
:10212000822B8093F5028BCFEBE5EC0FE33040F48C
:10213000F0E0EC5AFE4F808190E0CF910C94BA070A
:10214000E8E5EC0FE73150F4F0E0EE0FFF1FE95A3D
:10215000FE4F80819181CF910C94A407C03F30F055
:102160008C2F0E94790BCF910C947409CF91089514
:102170001F93CF93DF93182FCAE0D0E0893311F477
:10218000C0E5D0E0812F0E9403108FE99FE0019706
:10219000F1F700C000002197C1F7812FDF91CF91A7
:1021A0001F910C94E10A0F931F93CF93DF93C62FD7
:1021B000D42F022FFC0182818823A1F060938E032B
:1021C0000E94370690938D0380938C03C77081E043
:1021D00001C0880FCA95EAF7DF91CF911F910F9147
:1021E0000C949A0780918E03681335C080918C03FC
:1021F00090918D030E942806883C910560F510E2BD
:102200001D0FCD17B9F080E28C0F883040F4C770F5
:1022100081E001C0880FCA95EAF70E949307183041
:1022200048F481E09D2F977001C0880F9A95EAF7D6
:102230000E949A07802F0E94B810183098F4D77027
:1022400081E001C0880FDA95EAF7DF91CF911F9105
:102250000F910C949307C77081E001C0880FCA9555
:10226000EAF7F3CFDF91CF911F910F910895CF93AC
:10227000DF93EC01805E9109089720F069E877E030
:10228000209711F46AE977E0CE010E94410C8C2F6F
:10229000DF91CF910C940310CF93909191029923E9
:1022A00021F0811116C010929102CF910895EC2F68
:1022B000F0E0EE0FFF1FED57FD4F808191810E94EE
:1022C00037110E945506CF5F80919102C81778F3AD
:1022D000EACFC0E0F9CF80914A0380FD0AC0ECEC60
:1022E000F1E0118210821282339651E0E03FF5074F
:1022F000C1F7539A3BB1377F2BB128604FB7F894A1
:102300008CEC91E0FC015191CF0168E02BB9000009
:1023100000C057FF3BB9550F000000C000C000C00F
:102320003BB900C06A9591F7F1E0803F9F0751F7F4
:102330004FBF8FE594E00197F1F700C000000895CA
:10234000EF92FF921F93CF93DF93EC018CECE82E7A
:1023500081E0F82E10E08C81970140914D0360914F
:102360004C03810F0E94DE081B5E83E0E80EF11C27
:102370001C3F89F70E946B119A818C8190FF08C0E5
:102380008F5F8C83DF91CF911F91FF90EF90089525
:102390008150F7CFBF92CF92DF92EF92FF920F93CF
:1023A0001F93CF93DF93FC018281DD24DA9480FDBB
:1023B00002C0DD24D3940CEC11E0D0E0C0E02CE0AE
:1023C000B22EF80111821082128294E0E92EF12CD3
:1023D000C12C8091C9018C0D8D300CF43DC06B2D4A
:1023E0000E942D32892F082E000C990B8C179D0707
:1023F00091F480914D038E9DA0018F9D500D11246D
:102400005595479555954795980160914C03809156
:102410004B030E94DE08CD0CF1E0EF1AF108C9F67B
:1024200021960D5F1F4FCC30D10559F60E946B11DC
:102430008091C90191E0D91215C0811111C08BE0C2
:102440008093C901DF91CF911F910F91FF90EF9081
:10245000DF90CF90BF90089587FFC5CF845FC3CF33
:102460008150EECF90E00196BE010E944F32E8CF3E
:102470000F931F93CF93DF93CCECD1E0FE01118239
:1024800010821282339681E0E03FF807C1F710E036
:1024900000E08091CA01082E000C990B081719075B
:1024A0008CF180911001082E000C990B8017910778
:1024B0004CF19E0140914D0360914C0380914B0380
:1024C0000E94DE080F5F1F4F23960C30110509F79D
:1024D0000E946B1180910F019091CA01980F909307
:1024E000CA0120911001280F20931001121614F434
:1024F0009B301CF0819580930F01DF91CF911F914C
:102500000F910895198218821A82DCCF8F929F92C0
:10251000AF92BF92CF92DF92EF92FF920F931F93F1
:10252000CF93DF93EC014C81042F10E09801D80188
:102530000E94AC339B01AC010E9477334B015C01DC
:10254000E0E2F0E0E01BF10BA5E5B0E0AC019B019F
:102550000E9477336B017C019F01DF010E94703282
:102560009B01AC010E9482339B01AC01280D391DF7
:102570004A1D5B1DC701B6010E948A33F22E822FCD
:1025800090E039E23F15D8F143E0249F90011124F7
:1025900035952795122F10959CECC92E91E0D92ED8
:1025A00000E085E5E82EEF188E2D01FD8F2D9601B8
:1025B000412F60914C030E94DE080F5F53E0C50E6F
:1025C000D11C0C3089F70E946B119C8181E099230A
:1025D00019F0903219F48FEF80931101809111015D
:1025E000890F8C83DF91CF911F910F91FF90EF9016
:1025F000DF90CF90BF90AF909F908F90089525E58A
:1026000030E0A901481B590BCA019A01220F331F60
:10261000280F391F37FFBCCF2F5F3F4FB9CFEF9245
:10262000FF920F931F93CF93DF938C01CCECD1E0FB
:10263000F12CE12CF801948160914C0380914B03C3
:10264000F6E0EF16F104FCF49923F9F09E014091B5
:102650004D030E94DE082FEFE21AF20A23968CE067
:10266000E816F10439F70E946B11F801848190E0BB
:102670000196817099278483DF91CF911F910F91EB
:10268000FF90EF900895992309F39E0140E0E1CF78
:1026900090914A0390FF0CC0ECECF1E081836083E1
:1026A0004283339691E0E03FF907C1F70C946B1138
:1026B00008950F931F93CF93DF9300D00F92CDB760
:1026C000DEB78C018091CB0181110AC09E012F5F82
:1026D0003F4F4FEF6FEF0E94DE088A818093CB015E
:1026E000F8016481613069F08091CB0140E066239C
:1026F00061F040E0623011F44091CB0180E060E095
:1027000004C06091CB0140E080E00E944813F801D2
:10271000848190E0019663E070E00E944F328483F0
:102720000F900F900F90DF91CF911F910F9108950F
:10273000CF93DF9300D00F92CDB7DEB790914A03CD
:1027400090FF0AC09E012F5F3F4F0E94DE084B8121
:1027500069818A810E9448130F900F900F90DF913A
:10276000CF910895CF93DF93EC01EC81F0E0E15835
:10277000FC4F4491EAE4F3E0628181810E94981366
:102780008C818F5F8C83DF91CF910895CF93DF93FE
:10279000EC01EAE4F3E0438162818C810E949813AA
:1027A0008C818F5F8C83DF91CF910895AF92BF9220
:1027B000DF92EF92FF920F931F93CF93DF93C5E8C1
:1027C000D1E00DE113E0D12CEE24E394F12C8991BA
:1027D000F894E82FE295EF70F0E021A18F70A70147
:1027E00002C0440F551F8A95E2F7CA01922F982B19
:1027F00091A392A18095892382A3789400C0E9E8EF
:10280000F1E030E020E0B12CA12C4191A42FA29561
:10281000AF70B0E090968C9190E04F7002C09595AB
:1028200087954A95E2F780FD5EC0C701022E02C07F
:10283000880F991F0A94E2F7A82AB92A2F5F3F4F01
:102840002C30310511F7FE01319780810E94E10B98
:1028500050EA5A95F1F7F80180819181A816B906DE
:1028600009F444C0B182A08281E0D82A0E5F1F4FD4
:10287000F1E0C938DF0709F0AACFDD20C9F181E016
:102880008093C8010E9437069093C7018093C601C8
:102890008091C6019091C7010E942806069760F1B9
:1028A00080911D0390911E039093500380934F03DA
:1028B00080911F03909120039093520380935103C2
:1028C00080912103909122039093540380935303AA
:1028D0008091230390912403909356038093550392
:1028E0001092C80109C090E080E0A6CF80E0BDCF83
:1028F0008091C8018111CCCF8091120110E006E1D6
:102900008F3F09F040C080911301811147C08D2D88
:10291000DF91CF911F910F91FF90EF90DF90BF90CB
:10292000AF900895029FF001039FF00D1124EF5B1B
:10293000FD4FE288F388E114F10419F488ECE82EE5
:10294000F12C029FE001039FD00D1124CF5BDD4FDE
:102950008E818823B9F08D859E850E942806E81611
:10296000F90680F4109F700111248989811105C036
:10297000C7018F5B9D4F0E94DC07C701895B9D4F9C
:102980000E94FD071F5F212F30E080911201082E69
:10299000000C990B821793072CF6B5CF8091920209
:1029A00090919302009709F4B2CF0E942806893CC7
:1029B000910508F4ACCF81E00E944C110E944708B9
:1029C000A6CFAF92BF92CF92DF92EF92FF920F937A
:1029D0001F93CF93DF93EC018AE0A82E2881222356
:1029E00009F48CC02130C9F599818A81913021F494
:1029F00022960E94B81005C0923029F422960E94B7
:102A000003102196EBCF933021F422960E94E10A25
:102A1000F8CF943011F02196F4CF229630E020E0E8
:102A2000AE014F5F5F4F8053990B8A30910550F094
:102A30002150310930F38FE99FE00197F1F700C091
:102A40000000F6CFA29EB001A39E700D11249C0140
:102A5000260F371F8981EA01E3CFE22FF0E0E6502D
:102A6000FE4FB490822F86958695869590E0FC0166
:102A7000E651FE4FE4902770F12C022E02C0F5942F
:102A8000E7940A94E2F731E0E322FF24FC01E652E6
:102A9000FE4FC490D12C022E02C0D594C7940A9444
:102AA000E2F731E0C322DD24FC01E653FE4F04913E
:102AB00010E002C0159507952A95E2F701701127DD
:102AC000E114F10419F081EE0E940310C114D10445
:102AD00019F086EE0E9403108B2D0E94B810CD28AD
:102AE00019F086EE0E94E10AEF2819F081EE0E94AB
:102AF000E10A012B09F485CF8CE27BCFDF91CF91E6
:102B00001F910F91FF90EF90DF90CF90BF90AF900B
:102B100008951092F50280912001E8EAF1E08823FF
:102B200059F080911B0387FF07C08EE1DF011D92E2
:102B30008A95E9F70C949B0986E0F8CF1F93CF9311
:102B4000DF93CDB7DEB7AA970FB6F894DEBF0FBEFE
:102B5000CDBF84E893E02091F100DC012D93CD01FD
:102B6000B3E08C389B07B9F780918503833009F473
:102B700071C0B8F4813009F448C0823009F4B2C0A1
:102B80008091E80083FF3AC180918403909185038E
:102B90009A3008F033C1E92FF0E0E553FC4C0C9477
:102BA00063328A3009F48DC08B3009F470C08930EB
:102BB00039F780918403813219F7809188039091CD
:102BC0008903009711F00297D9F68091E800877F7A
:102BD0008093E8008091E80082FF37C09091F30075
:102BE0008091F200029729F48091F1008B7F81306F
:102BF00021F48091F10080935F038091E8008B774E
:102C00008093E8000E941205BBCF80918403813A33
:102C100009F0B6CF8091E800877F8093E80080912B
:102C2000880390918903892B61F460E280E693E048
:102C300070E00E94C4058091E8008B778093E800E3
:102C40009FCF60E090E080E0F3CF8091820381111C
:102C5000C1CF96CF80918403813A09F091CF8091C2
:102C6000880390918903892B09F08ACF8091E8002D
:102C7000877F8093E8008091E80080FFFCCF8091FF
:102C800020018093F1008091E8008E77B9CF809188
:102C90008403813209F074CF809188039091890375
:102CA000892B09F06DCF8091E800877F8093E80041
:102CB0000E94120580918603809320010E9489154D
:102CC0005FCF80918403813209F05ACF8091E80070
:102CD000877F8093E8000E9412058091870380938C
:102CE0005E034ECF80918403813A09F049CF8091F1
:102CF000E800877F8093E8008091E80080FFFCCFA8
:102D000080915E03BECF803899F0823809F076C09A
:102D1000809188038F70873008F070C08093E9003D
:102D20008091EB0085FB882780F91092E90006C0AE
:102D30008091800390918103911182609091E800CD
:102D4000977F9093E8008093F1001092F1008091BA
:102D5000E8008E77C0C1882309F4ADC1823009F044
:102D60004DC0809186038111B1C1809188038F701D
:102D70002FEF280F263008F041C08093E900209102
:102D8000EB0020FFA3C1933031F48091EB0080620F
:102D90008093EB009BC19091EB0090619093EB00CE
:102DA00021E030E001C0220F8A95EAF72093EA0083
:102DB0001092EA008091EB008860EACF81111EC07A
:102DC000109186031F778091E3008078812B809398
:102DD000E3008091E800877F8093E8000E9412055D
:102DE0008091E80080FFFCCF8091E30080688093B1
:102DF000E30082E0111183E0809382038091E80078
:102E000083FF0AC08091E800877F8093E80080916B
:102E1000EB0080628093EB00AA960FB6F894DEBFB9
:102E20000FBECDBFDF91CF911F91089580588230A2
:102E300028F720918603309187032C3DE3E03E077D
:102E4000A1F583E08A838AE289834FB7F894DE0193
:102E5000139620E03EE051E2E32FF0E0509357005C
:102E6000E49120FF03C0E295EF703F5FEF708E2F7B
:102E700090E0EA30C0F0C7968D939D932F5F243188
:102E800059F74FBF8091E800877F8093E8006AE29E
:102E900070E0CE0101960E94C4058091E8008B7716
:102EA0008093E800ABCFC096E7CF809188039091E4
:102EB0008903432F55274330510509F44AC078F55B
:102EC0004130510509F485C08BE590E0ECEEF7E068
:102ED0004230510509F092CF2091E800277F2093DE
:102EE000E80020918A0330918B038217930708F43E
:102EF0009C0140E02115310509F070C041116EC000
:102F00008091E80082FDC9CF80918203882329F255
:102F1000853019F28091E80083FFF2CFBECF4132B5
:102F2000510509F447C04232510509F067CF83309B
:102F3000910508F063CFFC01EE0FFF1FE856FE4F2E
:102F40000190F081E02D8B569E4FDC018C9190E03A
:102F50001DC0332721303105E9F02115310579F005
:102F600022303105F9F02330310509F047CFE9E58A
:102F7000F8E0E4918E2F90E0E9E5F8E007C0E9E998
:102F8000F8E0E4918E2F90E0E9E9F8E0009709F489
:102F900035CFA2CFE5E8F8E0E4918E2F90E0E5E8A8
:102FA000F8E0F4CFE7E7F8E0E4918E2F90E0E7E770
:102FB000F8E0ECCF8330910508F020CF880F991FFF
:102FC000FC01E256FE4F0190F081E02D89E090E097
:102FD00083CF82E190E0E7E4F8E07ECF8091820346
:102FE000882309F45ACF853009F457CF8091E8003F
:102FF00083FD53CF8091E80082FD82CF8091E8006D
:1030000080FF78CF9091F3008091F2002115310577
:1030100019F08830910550F041E0089709F040E040
:103020008091E8008E778093E80064CF44914093CC
:10303000F1003196215031090196E8CF803809F02E
:10304000DDCE8091E800877F8093E8008091830344
:103050008093F1007CCE8111D1CE10918603123085
:1030600008F0CCCE8091E800877F8093E800109331
:1030700083030E941205112311F084E005C08091A2
:10308000E30087FDFACF81E08093820342E061ECA8
:1030900081E00E94310542E261EC84E00E9431054A
:1030A00042E261EC82E00E94310542E260EC83E0A2
:1030B0000E943105A3CE80918603813009F09ECE17
:1030C00081E0933009F080E0809381031092E90061
:1030D0008091E800877F8093E8000E9412058ECEE1
:1030E0007F928F929F92AF92BF92CF92DF92EF9298
:1030F000FF920F931F93CF93DF93CDB7DEB7649703
:103100000FB6F894DEBF0FBECDBFA0901401B090F3
:10311000150181E090E090931501809314018FE7F1
:10312000C82E84E0D82E00E0760110E015C0F4012E
:1031300025913491472D612F802F0E940A0F82E044
:10314000880E911C7394ECE07E12F1CFF8E1EF0E43
:10315000F11C1F5F143019F04701712CE8CF0F5F8D
:1031600080E6C80ED11C0430F9F61A8219821C823E
:103170001B821E821D8218861F8288EC90E09A872F
:1031800089874AE050E067EA71E0CE0101960E942B
:1031900040334AE050E061EB71E0CE0101960E94BD
:1031A00040334AE050E06BEB71E0CE0101960E94A3
:1031B00040337E01EBE0EE0EF11C8AE0F701119244
:1031C0008A95E9F705EC11E04AE050E0B801C70143
:1031D0000E944033065F1F4F0130F2E01F07A1F746
:1031E000B0921501A092140164960FB6F894DEBF58
:1031F0000FBECDBFDF91CF911F910F91FF90EF9048
:10320000DF90CF90BF90AF909F908F907F90089568
:103210004F925F926F927F928F929F92AF92BF92E6
:10322000CF92DF92EF92FF920F931F93CF93DF9392
:10323000FC016280448081E08483EFE7F3E07490D6
:10324000EEEFF3E0E491C0EFD1E03CECE32E31E0AF
:10325000F32E4CE2C42E42E0D42E52E0A52EBB2425
:10326000B39488248A94912C55245A94E7190E2FEC
:1032700010E082E0861530F080914B0388838091C6
:103280004C038983411021C01B821A8297014A8115
:10329000698188810E94DE08259683E0E80EF11C92
:1032A000CC16DD0631F7DF91CF911F910F91FF9082
:1032B000EF90DF90CF90BF90AF909F908F907F90D6
:1032C0006F905F904F900C946B118B818823E9F085
:1032D00081508B83859DC00111246C8170E00E9418
:1032E0003B32FB01FF27E158FC4F8491E82FE7199F
:1032F000E59DC0011124B8010E943B3280914D032D
:10330000689FB00111247A83C1CF0E94CB322091F3
:103310004D03269521582A9DA0012B9D500D112467
:10332000452F5527841795070CF0B0CF82E08615FE
:1033300088F40E94CB32B4010E944F3288830E94ED
:10334000CB3220914C032695622F70E00E944F32C1
:10335000280F29831A8280914D03893C20F088EC44
:103360008C838B8393CF8431D8F784E1F9CF6AEED5
:103370007EEF90E080E00E943A3360E082E090E0EF
:103380000E941C3360E083E090E00E941C331092A6
:10339000F9021092FA021092FB021092FC0260E015
:1033A00084E090E00E941C3360E082E290E00E94A2
:1033B0001C3360E085E090E00E941C3360E086E012
:1033C00090E00E941C336FEF87E090E00E941C3376
:1033D00040E050E0BA0188E090E00E942E3360E0C7
:1033E0008DE090E00E941C3340E050E0BA0188E19B
:1033F00090E00E942E3360E087E190E00E941C3351
:1034000040E050E0BA018CE190E00E942E3370E081
:1034100060E080E290E00E943A3340E050E0BA0180
:1034200088E190E00E942E3340E050E0BA018FE046
:1034300090E00E942E3340E050E0BA0183E190E03A
:103440000C942E3390E080E00E9416338A3E9E4F0B
:1034500051F00E94B7198091470384708162809374
:1034600047030E943F0F86E090E00E94083380935C
:103470004703883220F087708062809347039091E1
:103480004703892F817090FF04C0892F8695869508
:1034900086950C945908CF92DF92EF92FF926B01C0
:1034A0007C010E94CF08B701A60188E090E0FF9060
:1034B000EF90DF90CF900C942E335F926F927F92BB
:1034C0008F929F92AF92BF92CF92DF92EF92FF9234
:1034D0000F931F93CF93DF9300D00F92CDB7DEB73A
:1034E000182F762E042F622E90914A0390FF29C048
:1034F000E92FE695AE2FB0E0A75DBE4F8C9180938B
:1035000048039E7F923081F59E012F5F3F4F812FB0
:103510000E94DE084B8169818A810E9448131093C2
:103520004B0370924C0300934D03662051F0609161
:103530004A0370914B0380914C0390914D030E947C
:103540004B1A0F900F900F90DF91CF911F910F9119
:10355000FF90EF90DF90CF90BF90AF909F908F90B3
:103560007F906F905F900895823019F400914D0321
:10357000D6CF863019F410914B03D1CF8930D9F3CF
:10358000893169F6E9518E2F8170582EE695F0E069
:10359000E658FC4FA590B490BB248CECE82E81E05B
:1035A000F82ED12CC12C9CE0892E912CC601B4019F
:1035B0000E943B32812F511013C0860F9701402F7C
:1035C000672D0E94DE08CA0CDB1C83E0E80EF11CAC
:1035D00080EFE81681E0F80649F70E946B119FCF53
:1035E000861BECCFEAE4F3E0438121E1421B08F4BF
:1035F00040E021E0628181810C945D1AEAE4F3E00D
:10360000438121E1420F08F44FEF21E06281818183
:103610000C945D1AEAE4F3E0628121E1621B08F494
:1036200060E021E0438181810C945D1AEAE4F3E0DB
:10363000628121E1620F08F46FEF21E04381818113
:103640000C945D1AEAE4F3E0818121E04381628118
:103650008A500C945D1AEAE4F3E0818121E0438111
:103660006281865F0C945D1A80914E03882319F065
:10367000815080934E0360914A0370914B03809177
:103680004C0390914D030C944B1A80914E03833060
:1036900018F48F5F80934E0360914A0370914B033F
:1036A00080914C0390914D030C944B1AEAE4F3E0A3
:1036B00083E0808311828FEF828383831482608111
:1036C0007181828193810C944B1A9B01863070F436
:1036D0009AE0899FB00111246B537E4F4AE050E07D
:1036E000C9010E94F83290E080E008958FEF9FEFCB
:1036F00008959B01833070F49AE0899FB0011124F2
:1037000069557E4F4AE050E0C9010E94F83290E0CE
:1037100080E008958FEF9FEF08958F929F92AF9270
:10372000BF92CF92DF92EF92FF920F931F93CF93AE
:10373000DF93CDB7DEB72A970FB6F894DEBF0FBE82
:10374000CDBF01E412E0F12CE12C87E8C82E88E21D
:10375000D82E91EBA92E98E2B92E20EF822E27E2E7
:10376000922EF801D182C082B382A2829582848295
:10377000F58AE48ABE016F5F7F4F8E2D0E94791B10
:10378000892B29F489859A85F801938B828BFFEF29
:10379000EF1AFF0A0A5E1F4F83E0E816F10409F7EB
:1037A0002A960FB6F894DEBF0FBECDBFDF91CF9142
:1037B0001F910F91FF90EF90DF90CF90BF90AF904F
:1037C0009F908F90089590914A0390FF3DC0917013
:1037D000811129C0926090934A03662351F0609151
:1037E0004A0370914B0380914C0390914D030E94CA
:1037F0004B1A60914A03669570E04BE050E084E01C
:1038000091E00E94E432892BA9F01092490381E0F3
:1038100080932C0320E040914D0360914C038091F4
:103820004B030C945D1A8B3210F09465D4CF880F43
:10383000982BD1CF81E0809349030E943706909363
:103840002A0380932903E3CF089580914A03869544
:10385000815009F48AE261E00C94E31B80914A03F1
:1038600086958F5F8B3208F081E061E00C94E31B5A
:1038700090914A0390FF07C09695981720F09617ED
:1038800010F40C942E1C61E00C94E31B2F923F92D9
:103890004F925F926F927F928F929F92AF92BF9260
:1038A000CF92DF92EF92FF920F931F93CF93DF930C
:1038B000CDB7DEB764970FB6F894DEBF0FBECDBFAD
:1038C0007C01DC0113968D919C911497892B39F022
:1038D0008C9111969C9189238F3F09F0BBC7649608
:1038E0000FB6F894DEBF0FBECDBFDF91CF911F9111
:1038F0000F91FF90EF90DF90CF90BF90AF909F908F
:103900008F907F906F905F904F903F902F90089591
:103910000E94700E182F682F89819A810E94440797
:1039200069817A81812F0E94CA0C8C01F701828102
:10393000811111C0D70112968C9181114CC00031B8
:10394000BFE51B0709F4DDC00131EFE51E0709F0F3
:10395000F9C682E0D7C0809112018F3F59F3E1E4AC
:10396000CE2EE2E0DE2EB12CA12C992493948091EE
:103970001201082E000C990B8A159B05DCF2F6014A
:103980008681882309F1818592850817190739F402
:1039900080913F029091400208171907A9F0D601C3
:1039A0001F969C921F971C961C930E931B975196E3
:1039B0008C91811103C0C6010E94DC07C6010696E6
:1039C0000E94FD071092F402BFEFAB1ABB0AE6E1BA
:1039D000CE0ED11CCCCF980122513F45203131056C
:1039E00008F095C68FEF93E00E9408337EEED72E45
:1039F000D00E01E012E08823D9F08091F2028770A6
:103A000009F46DCFD70112968C91882309F467CF02
:103A100082E00E94010A63CF0115F4E01F0769F3F9
:103A2000C8010E940833811101C0DA940F5F1F4F53
:103A3000D110F2CF19821A821B821C82CC24CA9424
:103A400048012FEF821A920AC8010E940833898325
:103A50001A82882391F2813009F047C0580132E080
:103A6000A30EB11CC4010E940833982E8A838823B8
:103A700021F2C5010E940833D82E8FEF890D8330C3
:103A800068F4580143E0A40EB11CDB82DD2021F074
:103A9000CE0101960E94E1148501D2CF54E0951227
:103AA000FBCF580184E0A80EB11CC80103960E9408
:103AB0000833DD2009F4A1CF882309F49ECF81507B
:103AC000990BC89E9001C99E300D1124AD2DA150B7
:103AD000BB0BCD01820F931F0197F0F2EFE9FFE0DE
:103AE0003197F1F700C00000F7CFCE0101960E9498
:103AF000E1145401D1CF81E00E941D0A0E94C20945
:103B00007CCF81E00E94DE09F9CF82E0F5CF0F3B48
:103B10009CE5190709F44CC0A8F1003CBCE51B0763
:103B200009F010C690914703892F86958695869552
:103B30008F5F8F719770853008F05BC0880F880F9A
:103B4000880F892B809347038091470312C084E03C
:103B50000E94B408809147030E943F0F4ECF80E03F
:103B6000F7CF80914703982F987FE9F18850809391
:103B70004703887F91E009F490E08091470390FB30
:103B800080F913C080914703982F96959695969546
:103B9000943040F49F5F990F990F990F8770892B8C
:103BA000809347038091470381608093470319C046
:103BB0008091470380FF09C08E7F809347030E9456
:103BC0003F0F80E00E94590818CF80FD16CF81601A
:103BD00080934703813019F489E0809347038091F3
:103BE00047030E943F0F80914703869586958695EF
:103BF000E9CF90934703A8CF882309F4E9C58189C9
:103C0000882309F4E5C5C501895B9D4F0E94FD0726
:103C1000DFC5073FFCE51F0709F054C0882309F4FE
:103C2000D7C581E080931301D70112968C91882328
:103C300009F430C610928E030230BCE51B0708F46D
:103C40002DC20631ECE51E0730F0C8018A5F9C45A5
:103C5000099708F023C20E948D0C90931C03809357
:103C60001B030031FCE51F0709F4E7C108F075C12B
:103C700008303CE5130709F4D2C108F049C104300B
:103C80005CE5150709F4C3C108F02FC102309CE5BB
:103C9000190709F4B6C180911B03826003301C45EB
:103CA00009F4B2C160911B0310911C0384E090E001
:103CB0000E941C33612F82E290E00E941C330E941C
:103CC00089159BCE083F2CE5120709F0D6C588233D
:103CD00009F47EC510921301109293021092920281
:103CE00081E00E944C11A0CF3A9CF0013B9CF00D6A
:103CF0001124E350FD4FBE01655F7F4F80810E941C
:103D0000651B892B61F0712C572880919502909149
:103D100096020196909396028093950269C5FE01E2
:103D20003B9690E080E066246A94282F419151915F
:103D30004115510589F10417150709F4682E0196FC
:103D40008430910591F724E03FEF6316E1F2D7014B
:103D500012967C903A9CC0013B9C900D1124FC0172
:103D6000E350FD4F6F018481A40102C0440F551F31
:103D70002A95E2F79A01215031097720A1F1A40197
:103D800001C0440F6A94EAF7842B84838F778217EB
:103D9000130631F0742CB8CF823008F4B4CFD4CFEE
:103DA00080E00E944C11D60114968C911497806883
:103DB00014968C93149712968D919C91009729F0EC
:103DC0000E943711209294029FCFBE016F5F7F4FF8
:103DD000809195020E94651B892BA1F789859A85A0
:103DE0000E944728EFCF8F778217130631F4828124
:103DF0009381009719F10E94780C3A9CF0013B9C4A
:103E0000F00D1124E350FD4F4481242F30E0062CA7
:103E100002C0359527950A94E2F720FF74CFC401BC
:103E200001C0880F6A94EAF780958423848387FF12
:103E30006ACF803809F0AECF1482ACCFBE016F5F7D
:103E40007F4F809195020E94651B892BB1F6898571
:103E50009A850E94C127D1CF511006C081E00E94EF
:103E60004C110E944708DCC4D70112968C9188231C
:103E700009F4C3CD0E943706909393028093920277
:103E8000E0919102E73008F0B8CD81E08E0F809389
:103E90009102F0E0EE0FFF1FED57FD4F11830083FD
:103EA000ACCD053F4CE51407C9F0A0F027E245EE84
:103EB00066EE063F8CE5180709F0B6CEC7010E94F2
:103EC000D3109BCD27E245EE65EEF8CF26E241EE1A
:103ED00060EEF4CF27E245EE64EEF0CF26E241EE4D
:103EE00062EEECCF28E241E0EFCF80911B038061CE
:103EF0000630BCE51B0709F487C080911B0388606E
:103F000007301C4508F480C080911B0380627CC090
:103F100080911B038D7F0C30FCE51F0709F474C0F2
:103F200070F480911B038C600A303CE5130709F4A0
:103F30006BC008F478C080911B038E7F65C08091B0
:103F40001B03877F0E305CE5150709F45DC008F49C
:103F500070C080911B038F7E57C00B3F9CE51907F3
:103F600009F459C030F50331BCE51B0709F46DC0F5
:103F700078F40131FCE51F0709F463C002311C45E8
:103F800009F090CE0E94891580911B038F773CC069
:103F900005313CE5130709F460C008F474C0809152
:103FA0001C0381600A3F1C4509F07CCE80931C03F2
:103FB00079CE0F3F8CE5180709F44BC088F4809147
:103FC0001C038D7F0D3FACE51A0781F380911C0324
:103FD0008E7F0E3F1C4550F380911C038360E6CF1B
:103FE0000130EDE51E0709F457C008F442C060E057
:103FF00002301D4509F056CE8EE090E00E941C3341
:1040000051CE80911B03816080931B034BCE809126
:104010001B038460F9CF80911C038260C7CF80911D
:104020001B038064F1CF0E94891580911B03806877
:10403000EBCF80911B038B7FE7CF80911B038F7D9C
:10404000E3CF80911B038F7BDFCF80911B03837FA6
:10405000DBCF80911C038C7FA9CF80911B0382FB57
:10406000992790F921E0922790FB82F990FB83F940
:10407000CBCF80911C03982F909591708E7F892BC8
:1040800090FB81F993CF0E94891590911B03892F92
:1040900097FB87F98058B8CF61E0AECF8091F502E9
:1040A00006313CE5130709F000C48A7A91E009F46F
:1040B00090E090939702811106C089E20E94E30686
:1040C0000E9455069ACC85E3F9CF85E3EBC3809136
:1040D0004A0380FF1BC08E7F80934A0360914A038E
:1040E00070914B0380914C0390914D030E944B1AA9
:1040F000109249034FEF50E782E04150504080401A
:10410000E1F700C000000E946B1177CC81608093C2
:104110004A0361E086950E94E31B6FCC45E25CE1B7
:104120006EE27CE10E94CA0868CC4EE25CE165E286
:104130007CE1F8CF4BE25BE162E27BE1F3CF4AE066
:104140005BE166E17BE1EECF42EF5AE16EEF7AE1AF
:10415000E9CF4EEF5AE162EF7AE1E4CF45E45BE16B
:1041600064E37BE1DFCF61E081E0D5CF65E082E011
:104170000E94381C42CC68E086E0FACF64E18FE010
:10418000F7CF67E185E1F4CF62E289E1F1CF61E049
:1041900083E2C1CF0B35FDE51F0701F10C351D454D
:1041A00009F0AEC380911C0382FB882780F991E05F
:1041B00089270E94E00EA4C30E9489153FEF44E3C3
:1041C0005CE0315040405040E1F700C000000E94E8
:1041D000DF0F0E94B71911CC81E0EBCF80E0E9CF6F
:1041E000C8010E941707D82E9AC3E12FEF70DE2E68
:1041F000107F19F0D29490EFD922BB20C9F0DD20B6
:1042000069F080E2800F883010F081100BC080913F
:10421000F502D82AD092F5020E945506802F0E94FE
:10422000031015C08091F402D82AD092F402F4CF82
:10423000802F0E94E10ADD2051F0005E083010F06E
:10424000811029C08D2D0E944E060E945506292DF1
:104250002850330B2430310520F40E94D0070E94EF
:104260003B0CAA2009F43BCB8091F20280FD37CBB6
:10427000D70112961C928595859585950E941D0AF9
:10428000C7010E94461C8091F2028595859585950F
:104290000E94DE0924CBD0948091F402D822D092DF
:1042A000F402D3CFF12FFF70DF2E107F103219F000
:1042B000D29480EFD822882081F021E0821609F480
:1042C00050C0BB2009F459C0CC2079F1F701858199
:1042D00080FFA4CF8F70858328C0BB2051F1C1100F
:1042E00004C08091F8028D2921C031E0C31213C0AF
:1042F00080911C0382FDABCF8091F802D82AD8169A
:1043000009F4A5CF0E9437069093F7028093F60236
:10431000D092F8029CCF45E0C412E3CF0E9443063E
:104320008091EF02D812D092EF028D2D0E949A0751
:104330008ECFC11006C00E9443068D2D0E949307A8
:1043400086CF51E0C51208C08091F5028D2109F495
:104350007ECF0E94B206EFCF85E0C81609F477CF72
:10436000EACFBB2029F095E09C1508F470CFDDCF93
:10437000A4E0AC1508F46BCFE0CFCC20F1F2F9E368
:104380008F120DC02FEF37EE43E0215030404040F8
:10439000E1F700C00000802F0E94E10A58CF8FE3B0
:1043A0009CE90197F1F7F5CF812F8695869583706B
:1043B00061F0813009F04BCFC8019370B11002C099
:1043C00090E080E00E94A40742CFC8019370B11032
:1043D00002C090E080E00E94BA0739CF802FBB2056
:1043E00039F00E94790B0E9474090E9474092FCF42
:1043F0000E945E0AFACF812F837009F066C0B11067
:1044000026CF802F829586958770880F880F602F22
:104410006F70462E512C712C612C082E04C0440C58
:10442000551C661C771C0A94D2F740E050E0BA0194
:1044300004FF0FC04FE050E060E070E004C0440FA4
:10444000551F661F771F8A95D2F740955095609546
:104450007095812F869586958370823019F1D8F4F6
:104460000091F9021091FA022091FB023091FC02B6
:10447000813069F04429552966297729CB01BA0191
:1044800060237123822393230E94540AE0CE402AA2
:10449000512A622A732ACB01BA0164297529862917
:1044A0009729F2CF44295529662977290091F902E5
:1044B0001091FA022091FB023091FC02CB01BA016B
:1044C0006027712782279327DFCF8695BB2011F0C5
:1044D000812F8170882309F4BACE802F829586952A
:1044E0008770880F880F602F6F70462E512C712CAB
:1044F000612C082E04C0440C551C661C771C0A94C1
:10450000D2F740E050E0BA0104FF0FC04FE050E0A6
:1045100060E070E004C0440F551F661F771F8A9546
:10452000D2F74095509560957095812F8695869528
:104530008370823019F1D8F400918F0310919003A9
:104540002091910330919203813069F044295529DB
:1045500066297729CB01BA01602371238223932333
:104560000E94B80974CE402A512A622A732ACB01CC
:10457000BA016429752986299729F2CF442955293A
:104580006629772900918F03109190032091910360
:1045900030919203CB01BA016027712782279327BC
:1045A000DFCF1F70BB2029F0812F0E941D0A802FB2
:1045B000BDCE802F0E949307812F0E94DE0947CE37
:1045C000802F92EF891609F455C0981578F0A0EF66
:1045D0008A1641F1B1EF8B1609F444C0BB2009F4EF
:1045E00082C0C1101BCE812F8F7141C0E3EF8E16A8
:1045F00009F445C0F4EF8F12F1CF8091EF02BB2098
:1046000009F45DC00E944E068091F20287708430EA
:1046100009F048C00E94AB06812F8F710E94DE090D
:10462000A12C15CEBB20C9F024E02C1508F40FCE28
:104630001F7161E070E080E090E004C0660F771FBA
:10464000881F991F1A95D2F700918F03109190033C
:1046500020919103309192039FCF35E03C1508F4EF
:10466000F6CDE6CF812F8F71BB2009F4A6CF0E9433
:104670001D0AEDCD812F8F71BB20C9F39ECF60E065
:1046800070E0CB01BB2009F46BCF1F7161E070E0DB
:1046900080E090E004C0660F771F881F991F1A956D
:1046A000D2F75ECF44E04C1508F4BACF1F71812FCA
:1046B0000E941D0A63E0812F0E943E0AB1CF9091B3
:1046C000F502982B9093F50254E05C1540F40E949B
:1046D000AB060E94B20664E0812F8F71EDCF81E0BE
:1046E0000E94010A9DCFCC2079F0893341F48FEFED
:1046F00097EEA3E081509040A040E1F74ACEEFE36F
:10470000FCE93197F1F745CE812F8F7156CF0031FB
:10471000FFE51F0709F4EFC901312FE5120709F47E
:10472000F4C90D3B2CE5120709F41BCA08F0EFC9C8
:104730000B3B4CE5140709F40ACA0C3B5CE5150772
:1047400009F40DCA980137552F3F310511F008F0D3
:1047500060CA40911201042E000C550B42175307FA
:1047600014F42093120196E1929F5001939FB00C94
:104770001124F501EF5BFD4F6F01808BD70112967D
:104780009C918681992309F437CA128701878F5F2C
:1047900086830E943706F601968785878091F80206
:1047A00087838091F4029091F502892B8087019094
:1047B000F081E02D309741F0D60154966D917C91B7
:1047C000C501895B9D4F09951093400200933F02FC
:1047D00040901301442021F110929602109295020C
:1047E000512C55E0352E88248394912C2224239437
:1047F000A0909502B0909602F6E0AF16B10408F4CE
:1048000073CA80919402882309F426CB0E9437064C
:104810009093930280939202109294025110EDC8EB
:10482000033FBCE51B0709F451CB08F03ACB083D28
:10483000FCE51F0709F446CB093D2CE5120709F4F6
:1048400051CB073D3CE5130709F0EEC926E241EEE6
:1048500061EE34CB85E0F701DE01119601900D92F7
:104860008A95E1F7D70112962C9189819A812111BD
:104870004FC80E941707182F53C8093FBCE51B07F4
:1048800009F0A6CF882309F4A3CF809113018111E9
:1048900021CAC7C906311C4599F58091970281113B
:1048A00014CC89E20E94B8060BCC82720C3CFCE569
:1048B0001F0709F453CC08F09BC0063C3CE51307E6
:1048C00009F438CC08F070C0033C5CE5150709F426
:1048D00025CC08F05AC0023CACE51A0709F4F7CB26
:1048E0000A359DE5190709F477CC08F053CC01157A
:1048F000BCE51B0709F460CC0E3D1C4509F469CCEE
:10490000F701828100811181882309F469CCC801F3
:104910000E94700ED82E682FC8010E944407B8016B
:104920008D2D0E94E60C8C01882ED7011296BC902A
:1049300012971596CC90C2943FE0C3228091F20268
:104940008770A1F0AB2CBB2091F0812F807F803449
:1049500021F080E2800F883048F082E00E94010A56
:104960008091F2028770AA24A3948111A12C912E28
:1049700092942FE09222BBE0B91508F468CCE92D9F
:10498000F0E0EB52FC4C0C946332043CBCE51B079A
:1049900009F4CBCB42E25BE16BE27BE1053CECE569
:1049A0001E0709F4BFCB9CCF093CFCE51F0709F4A7
:1049B000CBCB78F4073C3CE5130709F4C0CB083CAB
:1049C0004CE5140709F08CCF46E15BE16AE07BE13E
:1049D000A9CB0A3C5CE5150709F4BBCB44E35BE1DA
:1049E00065E47BE10B3C9CE5190709F49BCB78CF90
:1049F000013DACE51A0709F4C1CBA0F40E3CECE58F
:104A00001E0709F4B3CB08F4AECB0F3C2CE512071C
:104A100009F4B1CB6EE089E0003D3CE5130709F4F1
:104A2000A7CB5ECF043D4CE5140709F4ADCB68F489
:104A3000023D8CE5180709F4A4CB61E088E1033D51
:104A40009CE5190709F467CB4BCF053DACE51A0788
:104A500009F49DCB6AE285E20D35100709F488CB95
:104A60003FCF1F93CF93DF9380919E02807FA9F465
:104A700080919B02882389F08091D002D0919F027F
:104A80006091990270919A02A0919C02B0919D024E
:104A9000C62FC72316E0D81304C0DF91CF911F9112
:104AA000089590E0109711F0CF3F19F401968770A8
:104AB000F2CF189F9001199F300D1124F901E05693
:104AC000FD4F41814713F2CF40814613EFCF428122
:104AD0004111ECCF438154814A1B5B0B483C51058B
:104AE00028F780919E028F70806180939E02F90169
:104AF000EB55FD4F80818F708061808389E992E062
:104B00000E94461CDF91CF911F910C947407AF92C5
:104B1000BF92CF92DF92EF92FF920F931F93CF93AA
:104B2000DF93CDB7DEB761970FB6F894DEBF0FBE47
:104B3000CDBF8C0185E0F801DE011D9601900D923C
:104B40008A95E1F7F80180819181E28029E9A22E1E
:104B500022E0B22E60919C0270919D026115710558
:104B600009F43EC13091990240919A02232F2423E7
:104B70002F3F09F435C1C380D480F0909B02F60129
:104B8000E61BF70BFF2009F4FBC020919E02522F79
:104B9000507FE83CF10508F0BBC0511178C0FE2CF5
:104BA000491321C038131FC0E1101DC02F702061B0
:104BB00020939E02C5010E94461C80919E02F8012E
:104BC00085838F2D61960FB6F894DEBF0FBECDBFE3
:104BD000DF91CF911F910F91FF90EF90DF90CF90D9
:104BE000BF90AF900895CD2829F0282F29232F3F7B
:104BF00009F014C120E0F22FF170DF2E20FF3DC03C
:104C00002091D00240919F0256E0241315C08D8759
:104C10009E878D859E850E94B20E292F22952F702A
:104C20002230F8F0243020F59F70F9F0F8019581DA
:104C3000907FD9F4D12C1FC030E0529FF001539FD8
:104C4000F00D1124E056FD4F6181961306C060817E
:104C5000861303C06281E61210C02F5F3F4F27709A
:104C6000D4CF9F7011F0882329F3805E883010F331
:104C7000C8010E94461CFD2CA4CFEE2009F4A1CF50
:104C800080919E02816080939E02F12C9ACF4913FD
:104C900012C0381310C0E1100EC0F8012583C801FE
:104CA0000E94461C86E0F801A9E9B2E001900D924D
:104CB0008A95E1F786CF8D879E878D859E850E9498
:104CC000BC0E882309F1EE20F9F080919E0280321B
:104CD00070F02091990230919A0238872F831986BB
:104CE000DB86CA868C87CE0107960E94461C86E02A
:104CF000F801A9E9B2E001900D928A95E1F70E94CE
:104D00003125FF24F3945DCFC8010E94461CF9CFE2
:104D100051110AC089E992E00E94461C86E0F50123
:104D200011928A95E9F7B1CF49130FC038130DC01E
:104D3000E1100BC0F8012583C8010E94461C86E0E3
:104D4000F50111928A95E9F73CCF8D879E878D8575
:104D50009E850E94BC0E8823B9F2EE20A9F28091B4
:104D60009E02803220F22091990230919A023A8379
:104D700029831B82DD82CC828E83CE010196B5CF42
:104D8000E83CF105E0F6FE2CEE2009F4BDCF491316
:104D900016C0381314C080919E0280FD83CF982FD7
:104DA000907F09F47FCFF8018583903F09F477CF96
:104DB000982F907F905F8F70892B858370CF8D8720
:104DC0009E878D859E850E94BC0E811190CF80911B
:104DD0009E02816080939E02C8010E94461CF1CE13
:104DE000EE2009F491CF8D879E878D859E850E9448
:104DF000BC0EF82E882309F487CF86E0F801A9E9D4
:104E0000B2E001900D928A95E1F78091990290911C
:104E10009A020E94B20E0E943125D3CE21E02E25A7
:104E2000EACE1F93CF93DF93CDB7DEB767970FB668
:104E3000F894DEBF0FBECDBF342F4B8B252F5C8B7C
:104E40006D8B7E8B8F8B8E899F8961111092F402FE
:104E50001A8A198A3D872E876F87998B888B0E94C3
:104E600037062091F0023091F102821B930B8838B3
:104E7000934120F08091F20282FF7FC00E943706AA
:104E80002091F6023091F702821B930B88389341F0
:104E900010F00E94430686E0FE013D96DE01179663
:104EA00001900D928A95E1F7CE0107960E94872521
:104EB000882389F016E08091D00290919F02891397
:104EC00049C067960FB6F894DEBF0FBECDBFDF9125
:104ED000CF911F91089586E0FE013796DE0111966D
:104EE00001900D928A95E1F78A859B85892B11F3B4
:104EF00088859F8189238F3FE9F220919F0230E0CE
:104F0000C9010196877099274091D0024817190668
:104F100071F40E94891510929F021092D00286E0CF
:104F2000E9E9F2E0DF011D928A95E9F7C3CF96E047
:104F3000929FD001939FB00D1124A056BD4FFE014A
:104F4000319601900D929A95E1F780939F020E940D
:104F50007407B0CF819FC001112480569D4F0E94DD
:104F60008725882309F4ADCF8091D00290E0019687
:104F7000877099278093D0029ECF82E00E94010A19
:104F80007DCFCF93DF9300D000D00F92CDB7DEB7A7
:104F900090933A0280933902811520E2920748F4F7
:104FA0000F900F900F900F900F90DF91CF910C9476
:104FB000780C8EEF89838A831B820E94370681607A
:104FC000782F9D838C8349815A816B818D810F90CD
:104FD0000F900F900F900F90DF91CF910C941127AD
:104FE0000F931F93CF93DF938C01EB016FE272E07D
:104FF0008C2F0E94791B892BA1F48FE39CE90197E8
:10500000F1F700C00000DD27C45DDD4F8881F801A5
:1050100010821882833009F148F4813059F08230CF
:1050200081F0DF91CF911F910F9108958430D1F0DD
:105030008530B9F780912F0290913002009789F363
:1050400006C08091310290913202009799F3DF916E
:10505000CF911F910F910C94C127809133029091B1
:105060003402F3CF8091350290913602009779F7A0
:1050700020912F02309130028091310290913202C2
:1050800021153105D9F2009711F7C901E0CFCF936F
:10509000DF9300D000D00F92CDB7DEB790933A02E5
:1050A00080933902811520E2920748F40F900F9007
:1050B0000F900F900F90DF91CF910C9437118EEFDE
:1050C00089838A8381E08B830E9437068160782FF1
:1050D0009D838C8349815A816B818D810F900F90C4
:1050E0000F900F900F90DF91CF910C941127CF93D9
:1050F000DF93EC010E9447288FE39CE90197F1F7C9
:1051000000C00000CE01DF91CF910C94C1270F9316
:105110001F93CF93DF938C01862F6FE272E00E9482
:10512000791B892BC9F4C0912F02D09130022097AE
:1051300099F0F8018081833069F4CE010E947728CC
:10514000CE010E947728CE01DF91CF911F910F9160
:105150000C9477288430B8F7DF91CF911F910F918D
:1051600008950F931F93CF93DF938C01EB016FE2B0
:1051700072E08C2F0E94791B892B09F064C0FE011C
:10518000FF27D8018C91E45DFD4F8130D9F4199649
:105190009C911997992311F080830CC01A969C91C9
:1051A0009923D1F382E08083809131029091320281
:1051B0000097D9F480912F0290913002009709F462
:1051C00042C013C08230E9F519968C91199781116C
:1051D0002DC01A968C9181110EC083E0808380913E
:1051E000330290913402009719F1DF91CF911F9112
:1051F0000F910C94472884E0808380913502909130
:105200003602009791F780912F029091300200971B
:10521000F9F00E9477288091310290913202009734
:1052200021F780912F0290913002DFCF85E08083BB
:1052300080912F0290913002009729F00E947728E8
:10524000F0CF86E08083DF91CF911F910F91089579
:105250008091310290913202B1CF1F920F920FB61E
:105260000F9211242F933F934F935F936F937F93EC
:105270008F939F93AF93BF93CF93DF93EF93FF935E
:10528000D091E900DF708091EC00C82FC17080FDE3
:10529000C0E81092E9008091F000877F8093F000D1
:1052A00078940E949E151092E9008091F000886029
:1052B0008093F000CD2BCF70C093E900FF91EF9168
:1052C000DF91CF91BF91AF919F918F917F916F911E
:1052D0005F914F913F912F910F900FBE0F901F90B4
:1052E00018951F920F920FB60F9211242F933F9390
:1052F0004F935F936F937F938F939F93AF93BF93DE
:10530000EF93FF938091E10082FF09C08091E2005A
:1053100082FF05C08091E1008B7F8093E100809146
:10532000DA0080FF24C08091D80080FF20C08091E7
:10533000DA008E7F8093DA008091D90080FF9BC0D5
:1053400080E189BD82E189BD09B400FEFDCF81E025
:105350008093820380915D03811109C00E949804AB
:105360000E9463058091E20084608093E200809156
:10537000E10080FF17C08091E20080FF13C08091A0
:10538000E2008E7F8093E2008091E2008061809352
:10539000E2008091D80080628093D80019BC85E03B
:1053A000809382038091E10084FF29C08091E20014
:1053B00084FF25C080E189BD82E189BD89B5982F30
:1053C000917080FFFBCF8091D8008F7D8093D800B3
:1053D0008091E1008F7E8093E1008091E2008F7EDA
:1053E0008093E2008091E20081608093E2008091EE
:1053F0008303882309F445C084E08093820380916D
:10540000E10083FF27C08091E20083FF23C08091E9
:10541000E100877F8093E10082E080938203109215
:1054200083038091E1008E7F8093E1008091E20010
:105430008E7F8093E2008091E20080618093E200A1
:1054400042E060E080E00E9431058091F0008860D9
:105450008093F000FF91EF91BF91AF919F918F9159
:105460007F916F915F914F913F912F910F900FBE60
:105470000F901F90189519BC1092820310925D0333
:1054800076CF8091E30087FD93E090938203B7CFBE
:10549000CDB7DEB7E4970FB6F894DEBF0FBECDBF31
:1054A00084B7877F84BF0FB6F894A8958091600079
:1054B000886180936000109260000FBE80E890E0E9
:1054C0000FB6F89480936100909361000FBE85B78A
:1054D000806885BF85B7806885BF83E296E090933A
:1054E000A5018093A4010E948D1B1092FE021092D0
:1054F000FD0281E090E0909303038093020382E039
:1055000090E0909308038093070383E090E09093EA
:105510000D0380930C0384E090E09093120380933A
:10552000110385E090E090931703809316030E9487
:1055300098040E9463058091E20084608093E200F9
:105540007894809182038823A1F01091E9001F7064
:105550009091EC00892F817090FD80E8182B1092BB
:10556000E9008091E80083FD0E949E151F70109352
:10557000E90082E084BD93E095BD9AEF97BD8093EA
:105580006E0084EF0E94E10B85EF0E94E10B86EF35
:105590000E94E10B87EF0E94E10B09E811E0A5E909
:1055A000EA2EA1E0FA2ED8018D918D010E94E10B27
:1055B000E016F106C1F710921E0310921D0310921F
:1055C000500310924F031092200310921F03109269
:1055D0005203109251031092220310922103109251
:1055E0005403109253031092240310922303109239
:1055F00056031092550390E080E00E9416338A3ED5
:105600009E4F11F00E94B71982E090E00E9408338B
:1056100080933C030E948D0C90931C0380931B038A
:105620000E94D613EFE3FCE93197F1F700C00000C8
:105630000E94D61380914F0380FF17C06FEF83E263
:1056400090E00E941C336FEF84E290E00E941C33D4
:105650006FEF85E290E00E941C336FEF7FEF90E0E8
:1056600080E00E943A330E94DF0F83E090E00E94C6
:105670000833682F70E090E080E00E94540A229A7C
:105680002A9A269A2E9882E28093800089E180935C
:1056900081008FEF9FEF90938700809386000E9498
:1056A000221A83E290E00E9408338E3709F042C646
:1056B00084E290E00E940833813E09F03BC685E217
:1056C00090E00E940833823109F034C60E94221A09
:1056D00080912503811136C090E080E00E9416334E
:1056E0008A3E9E4F21F00E94B7190E94561B88E007
:1056F00090E00E94103360934A0370934B038093B1
:105700004C0390934D036E7F71F40E94561B88E00A
:1057100090E00E94103360934A0370934B03809390
:105720004C0390934D030E94CF081092490380913F
:105730004A0380FF04C060E086950E94E31B81E07D
:105740008093250386E191E09093270380932603BD
:1057500078E1672E712CE0E45E2EF7E5CF2EF3E0C2
:10576000DF2E8E010F5F1F4F8091820350E1E52EE7
:1057700062E1F62E853009F4D5C10E94D613882344
:1057800059F08FB7F89440915703509158036091A6
:10579000590370915A038FBFAFE4B3E0EDE3F3E038
:1057A000F12CE12C7E2D8D919D9121913191281725
:1057B000390709F4CBC12827392760E0AA24A3942C
:1057C000B12CA9014A215B21452B09F4B9C16BA772
:1057D0007CA79C012A213B2191E0232B09F490E036
:1057E0009DA70E9437068160782F9FA78EA74BA5A3
:1057F0005CA56DA58FA50E941127F701EE0FFF1F75
:10580000E35CFC4F80819181A826B926B182A082F9
:10581000809149038823D1F180914803E0914A03A4
:10582000E695E81BE0932B03823009F0A8C1F0E075
:10583000E05FF94FE491EE2EF12C72EBA72E73E1AD
:10584000B72E80912C03882361F010922C030E94C4
:10585000370690932A038093290310922E03109207
:105860002D030E943706E0912903F0912A038E1B35
:105870009F0B8F3F9F4750F4EE0DFF1DF0932A03BF
:10588000E093290389E293E0F501099586E0E5E3D9
:10589000F3E0D80101900D928A95E1F7B0903703BB
:1058A000A0903803F0903903E0903A031092370348
:1058B000109238031092390310923A038B2D8A29E3
:1058C00009F448C080913303909134030E94280664
:1058D0009C0190913203992309F453C52333310578
:1058E000C8F19F3F19F09F5F90933203BB2059F09E
:1058F0000E94590B9FEF1B140CF491E0899F802D9F
:10590000112480933703AA2059F00E94590B9FEF6E
:105910001A140CF491E0899F802D11248093380390
:10592000309137033323B1F020913803222391F0D3
:1059300045EB3403C0011124992309F491C19093DC
:10594000370345EB240390011124332309F48CC160
:10595000309338038F2D8E2909F448C0809130038D
:10596000909131030E9428069C0190912F03992366
:1059700009F402C525363105C8F19F3F19F09F5F34
:1059800090932F03FF2059F00E94370B9FEF1F14B5
:105990000CF491E0899F802D112480933903EE202F
:1059A00059F00E94370B9FEF1E140CF491E0899F71
:1059B000802D112480933A03309139033323B1F0C1
:1059C00020913A03222391F045EB3403C0011124C6
:1059D000992309F44DC19093390345EB24039001B9
:1059E0001124332309F448C130933A0380913703DB
:1059F00090913803892B90913903892B90913A0328
:105A0000892B11F00E94740986E0F801A5E3B3E048
:105A100001900D928A95E1F70E94D00790913B0387
:105A2000891731F00E94D00780933B030E943B0C02
:105A300080918203843009F097CE83E08093E9005F
:105A40008091E80082FF90CE8091E80090E085FF91
:105A50000AC00E94B70460E2A62EB12C7801882308
:105A600009F418C191E08091E8008B778093E800F9
:105A7000992309F479CEE0905B03F0905C0389816F
:105A8000E114F10409F414C18E3F09F0A8C18A8120
:105A9000833020F08550833008F0A1C1EA81EE30D8
:105AA00008F09DC1F0E0EF51FC4C0C946332809102
:105AB0008203843039F180E00E94590880E00E941E
:105AC0003B0C109228030FB6F894A89560926000E2
:105AD0000FBE5092600083B7817F846083BF83B71D
